:020000040800F2
:1000000000000120D1050008210600082106000893
:100010002106000821060008210600080000000053
:1000200000000000000000000000000021060008A1
:100030002106000800000000210600082106000833
:1000400021060008210600082106000821060008F4
:100050002106000821060008F10400082D0500080B
:1000600021060008210600082106000821060008D4
:1000700021060008210600082106000821060008C4
:1000800021060008210600082106000800000000E3
:100090000000000000000000000000002106000831
:1000A0002106000821060008210600082106000894
:1000B0002106000821060008210600082106000884
:1000C0002106000821060008210600082106000874
:1000D0002106000821060008210600080000000093
:1000E0002106000821060008210600080000000083
:1000F00000000000000000000000000021060008D1
:100100000000000021060008210600082106000862
:1001100000000000000000000000000000000000DF
:100120002106000821060008210600082106000813
:100130002106000800000000000000000000000090
:100140000000000000000000000000002106000880
:1001500021060008210600082106000821060008E3
:100160002106000821060008000000000000000031
:10017000000000000000000000000000000000007F
:100180000000000021060008000000000000000040
:04019000210600083C
:1001940010B5054C237833B9044B13B10448AFF3BD
:1001A40000800123237010BD140000200000000013
:1001B4006C06000808B5034B1BB103490348AFF3B1
:1001C400008008BD00000000180000206C06000834
:1001D40080B483B000AF0346FB71FB79002B06D1DA
:1001E4000A4B1B68094A43F00103136008E0FB79DA
:1001F400012B05D1054B1B68044A43F0020313602D
:1002040000BF0C37BD465DF8047B704730380240B0
:1002140090B482B000AF0446084611461A462346FD
:10022400FB710346BB710B467B7113463B71FB7933
:100234003B4A52F823301B68BA795200032101FA71
:1002440002F2D2431046FA79354951F8222003408C
:100254001360FB79324A52F823301B687979BA79F2
:10026400520001FA02F21046FA792D4951F822207F
:1002740003431360FB792A4A52F8233004331B6882
:10028400BA79012101FA02F2D2431046FA792449DB
:1002940051F82220043203401360FB79204A52F8BB
:1002A400233004331B683A7902F00101BA7901FA68
:1002B40002F21046FA791A4951F822200432034313
:1002C4001360FB79164A52F823300C331B68BA7951
:1002D4005200032101FA02F2D2431046FA7910497E
:1002E40051F822200C3203401360FB790C4A52F877
:1002F40023300C331B683A79521002F00301BA79A7
:10030400520001FA02F21046FA79054951F8222006
:100314000C320343136000BF0837BD4690BC7047DE
:100324000000002080B584B000AF0346FB710023B9
:10033400FB6010E0FB68D9B2FA79FB6842FA03F378
:10034400DBB203F00103DBB21A46012000F00AF825
:10035400FB680133FB60FB68062BEBDD00BF103745
:10036400BD4680BD80B485B000AF0346FB710B462B
:10037400BB7113467B71FB79224A52F823301B6808
:10038400BA795200032101FA02F21A40BB795B00E8
:1003940022FA03F3012B2BD17B79002B12D0FB79AA
:1003A400184A52F8233014331B68BA79012101FA30
:1003B40002F21046FA79134951F822201432034309
:1003C400136012E0FB790F4A52F8233014331B6890
:1003D400BA79012101FA02F2D2431046FA790949A5
:1003E40051F822201432034013600023FB7301E010
:1003F4000123FB73FB7B18461437BD465DF8047B71
:10040400704700BF0000002080B582B000AF304BC1
:100414001B682F4A43F4804313600020FFF7D8FE83
:100424000120FFF7D5FE00237B6009E07B68D9B289
:10043400002301220120FFF7EBFE7B6801337B6080
:100444007B68062BF2DD0223002200210020FFF747
:10045400DFFE0223002201210020FFF7D9FE1D4BFD
:100464001B681C4A23F0010313601A4B1B68194ACA
:1004740023F0F0031360184B1B68174A43F0010381
:100484001360154B1B68144A43F002031360134BAB
:100494001B68124A43F001031360104B1B680F4A98
:1004A40043F0020313600E4B40221A600C4B80226F
:1004B4001A6000F057F80B4B1B68FB7000F062F8F1
:1004C400FB78094AD35C1846FFF72CFFF1E700BF1D
:1004D4004438024008380140003C01400C3C0140D3
:1004E40000E100E0300000200800002080B400AFEC
:1004F4000B4B1B68092B03D9094B01221A6004E03A
:10050400074B1B680133064A1360064B1B68054AF8
:1005140043F00103136000BFBD465DF8047B7047E0
:1005240030000020143C014080B400AF0B4B1B682A
:10053400012B03D8094B0A221A6004E0074B1B68FD
:10054400013B064A1360064B1B68054A43F002034D
:10055400136000BFBD465DF8047B70473000002087
:10056400143C014080B400AF054B40221A60044B98
:1005740080221A6000BFBD465DF8047B704700BF4F
:1005840000E300E080B400AF064B6FF040021A6055
:10059400044B6FF080021A6000BFBD465DF8047B17
:1005A400704700BF00E300E080B400AF064BD3F80F
:1005B4008830054A43F47003C2F8883000BFBD4652
:1005C4005DF8047B704700BF00ED00E0DFF834D035
:1005D4000D480E490E4A002302E0D458C450043397
:1005E400C4188C42F9D30B4A0B4C002301E013606E
:1005F4000432A242FBD3FFF7D7FF00F011F8FFF754
:1006040003FF7047000001200000002014000020B8
:100614008C0600081400002034000020FEE70000CF
:1006240070B50D4E0D4CA41BA4100025A54209D194
:100634000B4E0C4C00F018F8A41BA4100025A54286
:1006440005D170BD56F8253098470135EEE756F8C8
:10065400253098470135F2E784060008840600082F
:100664008406000888060008F8B500BFF8BC08BC7A
:100674009E467047F8B500BFF8BC08BC9E4670475C
:04068400B9010008B0
:0406880095010008D0
:10068C000000024000040240003F065B4F666D7D97
:04069C00077F6F0065
:04000005080005D119
:00000001FF
