:020000040800F2
:1000000000000120D5060008250700082507000884
:100010002507000825070008250700080000000044
:10002000000000000000000000000000250700089C
:100030002507000800000000250700082507000824
:1000400025070008250700082507000825070008E0
:1000500025070008250700082507000825070008D0
:1000600025070008250700082507000825070008C0
:1000700025070008250700082507000825070008B0
:1000800025070008250700082507000800000000D4
:10009000000000000000000000000000250700082C
:1000A0002507000825070008250700082507000880
:1000B0002507000825070008250700082507000870
:1000C0002507000825070008250700082507000860
:1000D0002507000825070008250700080000000084
:1000E0002507000825070008250700080000000074
:1000F00000000000000000000000000025070008CC
:100100000000000025070008250700082507000853
:1001100000000000000000000000000000000000DF
:1001200025070008250700082507000825070008FF
:10013000250700080000000000000000000000008B
:10014000000000000000000000000000250700087B
:1001500025070008250700082507000825070008CF
:100160002507000825070008000000000000000027
:10017000000000000000000000000000000000007F
:10018000000000002507000800000000000000003B
:040190002507000837
:1001940010B5054C237833B9044B13B10448AFF3BD
:1001A40000800123237010BD0C000020000000001B
:1001B4007007000808B5034B1BB103490348AFF3AC
:1001C400008008BD00000000100000207007000837
:1001D40080B483B000AF0346FB71FB79412B02D09E
:1001E400422B07D00DE00A4B1B6B094A43F0010375
:1001F400136306E0064B1B6B054A43F002031363CB
:1002040000BF00BF0C37BD465DF8047B704700BFDC
:100214000038024090B482B000AF0446084611464C
:100224001A462346FB710346BB710B467B7113468A
:100234003B71FB79412B02D0422B49D091E04B4BCF
:100244001B68BA795200032101FA02F2D243114623
:10025400464A0B401360454B1B687979BA795200C2
:1002640001FA02F21146414A0B4313603F4B5B68AB
:10027400BA79012101FA02F2D24311463B4A0B40FA
:1002840053603A4B5B683A7902F00101BA7901FA9A
:1002940002F21146354A0B435360344BDB68BA799A
:1002A4005200032101FA02F2D24311462F4A0B40B5
:1002B400D3602E4BDB683A79521002F00301BA790D
:1002C400520001FA02F21146284A0B43D36048E077
:1002D400274B1B68BA795200032101FA02F2D24378
:1002E4001146234A0B401360214B1B687979BA7974
:1002F400520001FA02F211461D4A0B4313601C4BD3
:100304005B68BA79012101FA02F2D2431146184A14
:100314000B405360164B5B683A7902F00101BA79DD
:1003240001FA02F21146124A0B435360104BDB6888
:10033400BA795200032101FA02F2D24311460C4A5F
:100344000B40D3600A4BDB683A79521002F0030188
:10035400BA79520001FA02F21146054A0B43D360FE
:1003640000BF00BF0837BD4690BC70470000024084
:100374000004024080B485B000AF0346FB710B4615
:10038400BB7113467B71FB79412B02D0422B2DD0DC
:1003940059E0324B1B68BA795200032101FA02F288
:1003A4001A40BB795B0022FA03F3012B1BD17B7942
:1003B400002B0AD0294B5B69BA79012101FA02F2B8
:1003C4001146264A0B4353610AE0244B5B69BA7910
:1003D400012101FA02F2D2431146204A0B40536133
:1003E4000023FB7332E00123FB732FE01C4B1B68DB
:1003F400BA795200032101FA02F21A40BB795B0078
:1004040022FA03F3012B1BD17B79002B0AD0144B66
:100414005B69BA79012101FA02F21146104A0B43D1
:1004240053610AE00E4B5B69BA79012101FA02F2C9
:10043400D24311460A4A0B4053610023FB7305E083
:100444000123FB7302E00123FB7300BFFB7B18460F
:100454001437BD465DF8047B704700BF00000240BE
:100464000004024080B485B000AF03460A46FB7125
:100474001346BB710023FB73FB79412B02D0422B43
:100484000CD017E00F4B1B69BA79012101FA02F273
:100494001A40BB7922FA03F3FB730BE00A4B1B6986
:1004A400BA79012101FA02F21A40BB7922FA03F364
:1004B400FB7300BFFB7B18461437BD465DF8047B15
:1004C400704700BF000002400004024080B582B0C3
:1004D40000AF4220FFF77CFE0823FB7108E0F979A6
:1004E400002301224220FFF795FEFB790133FB71C3
:1004F400FB790A2BF3D90023BB7108E0B9790223F5
:1005040000224220FFF786FEBB790133BB71BB7921
:10051400032BF3D900BF00BF0837BD4680BD0000E0
:1005240080B400AF034B1B781846BD465DF8047BCE
:10053400704700BF2800002080B582B000AF0823B8
:10054400BB7137E0BB79002219464220FFF712FF46
:100554000023FB7122E0FB7919464220FFF782FF5A
:100564000346002B17D1FA79BB79A3F1080115488A
:1005740013465B00134403440B441A78124B1A705D
:1005840000F060F800BFFB7919464220FFF76AFFCC
:100594000346002BF7D0FB790133FB71FB79032B66
:1005A400D9D9BB79012219464220FFF7E3FEBB7972
:1005B4000133BB71BB790A2BC4D900BF00BF083714
:1005C400BD4680BD880700082800002080B582B0A1
:1005D40000AF4120FFF7FCFD0023FB7108E0F9792F
:1005E400002301224120FFF715FEFB790133FB7143
:1005F400FB79062BF3D900BF00BF0837BD4680BD89
:1006040080B582B000AF0023FB7108E0FB790022C3
:1006140019464120FFF7AEFEFB790133FB71FB79EC
:10062400062BF3D900BF00BF0837BD4680BD80B597
:1006340000AFFFF7CBFFFFF749FFFFF7E1FFFFF73D
:100644007BFFFCE780B582B000AFFFF769FF03468C
:10065400BB71BB79232B01D1FFF7D2FFBB79092BE7
:100664001CD80023FB7115E0BB790F4AD35C1946F3
:10067400FB79012202FA03F301EA0302FB7942FA4D
:1006840003F3DAB2FB7919464120FFF773FEFB79D5
:100694000133FB71FB79062BE6D901E0FFF7B0FFCC
:1006A40000BF0837BD4680BD0000002080B400AF05
:1006B400064BD3F88830054A43F47003C2F88830F7
:1006C40000BFBD465DF8047B704700BF00ED00E04D
:1006D400DFF834D00D480E490E4A002302E0D45806
:1006E400C4500433C4188C42F9D30B4A0B4C002376
:1006F40001E013600432A242FBD3FFF7D7FF00F0FE
:1007040011F8FFF794FF704700000120000000205B
:100714000C0000209C0700080C0000202C00002086
:10072400FEE7000070B50D4D0D4C641BA4100026AF
:10073400A64209D10B4D0C4C00F018F8641BA41010
:100744000026A64205D170BD55F8043B98470136F2
:10075400EEE755F8043B98470136F2E794070008A2
:10076400940700089407000898070008F8B500BF2C
:10077400F8BC08BC9E467047F8B500BFF8BC08BC7E
:040784009E467047D6
:0C0788000102030405060708092A0023EB
:04079400B90100089F
:0407980095010008BF
:0C079C003F065B4F666D7D077F6F00001D
:04000005080006D514
:00000001FF
