:020000040800F2
:100000000000012049030008CF020008D5020008C3
:10001000DB020008E1020008E7020008000000001F
:10002000000000000000000000000000ED020008D9
:10003000FB02000800000000090300081703000885
:100040009903000899030008990300089903000820
:100050009903000899030008990300089903000810
:100060009903000899030008990300089903000800
:1000700099030008990300089903000899030008F0
:100080009903000899030008990300080000000084
:1000900000000000000000000000000099030008BC
:1000A00099030008990300089903000899030008C0
:1000B00099030008990300089903000899030008B0
:1000C00099030008990300089903000899030008A0
:1000D0009903000899030008990300080000000034
:1000E0009903000899030008990300080000000024
:1000F000000000000000000000000000990300085C
:100100000000000099030008990300089903000803
:1001100000000000000000000000000000000000DF
:10012000990300089903000899030008990300083F
:10013000990300080000000000000000000000001B
:10014000000000000000000000000000990300080B
:10015000990300089903000899030008990300080F
:100160009903000899030008000000000000000047
:10017000000000000000000000000000000000007F
:1001800000000000990300080000000000000000CB
:0401900099030008C7
:1001940010B5054C237833B9044B13B10448AFF3BD
:1001A40000800123237010BD040000200000000023
:1001B400B406000808B5034B1BB103490348AFF369
:1001C400008008BD0000000008000020B4060008FC
:1001D40080B586B000AF002301220021412000F049
:1001E400EFF8002301220121412000F0E9F8002367
:1001F40001220221412000F0E3F80023012203211F
:10020400412000F0DDF8002301220421412000F008
:10021400D7F8002301220521412000F0D1F8002362
:1002240001220621412000F0CBF81A4A3B1D07CADF
:1002340003C31A8000237B6128E000233B611BE099
:100244003A1D7B6913441B781A463B6942FA03F34F
:1002540003F00103002B06D03B690122194641201B
:1002640000F090F905E03B6900221946412000F0B6
:1002740089F93B6901333B613B69062BE0DD4FF4AF
:10028400FA7000F009F87B6901337B617B69092B03
:10029400D3DDCFE7CC06000880B485B000AF78602A
:1002A4000023FB6002E0FB680133FB607B684FF4D2
:1002B4007A7202FB03F3FA689A42F4DB00BF00BFD0
:1002C4001437BD465DF8047B704780B400AFFEE789
:1002D40080B400AFFEE780B400AFFEE780B400AFA7
:1002E400FEE780B400AFFEE780B400AF00BFBD46B8
:1002F4005DF8047B704780B400AF00BFBD465DF875
:10030400047B704780B400AF00BFBD465DF8047B3A
:10031400704780B500AF00F03FF800BF80BD00001B
:1003240080B400AF064BD3F88830054A43F4700319
:10033400C2F8883000BFBD465DF8047B704700BF3B
:1003440000ED00E0DFF834D00D480E490E4A0023DA
:1003540002E0D458C4500433C4188C42F9D30B4A75
:100364000B4C002301E013600432A242FBD3FFF7DD
:10037400D7FF00F079F9FFF72BFF70470000012049
:100384000000002004000020E00600080400002013
:1003940024000020FEE7000080B400AF064B1B7869
:1003A4001A46064B1B681344044A136000BFBD463B
:1003B4005DF8047B704700BF00000020200000208F
:1003C40080B485B000AFB9607A603B600346FB73CC
:1003D400FB7B412B02D0422B64D0C7E0664B1B6BE6
:1003E400654A43F0010313637B68032B3BD801A2E6
:1003F40052F823F009040008230400083B04000811
:10040400530400085D4B1B68BA685200032101FACB
:1004140002F2D2431146594A0B40136023E0574B72
:100424001B68BA685200012101FA02F21146534ACC
:100434000B43136017E0514B1B68BA68520002214A
:1004440001FA02F211464D4A0B4313600BE04B4B89
:100454001B68BA685200032101FA02F21146474AA6
:100464000B43136000BF3B68002B03D03B68012B98
:100474000CD07BE0414B5B680121BA6801FA02F2BF
:10048400D24311463D4A0B4053600AE03B4B5B6844
:100494000121BA6801FA02F21146384A0B4353604B
:1004A40000BF63E0344B1B6B334A43F00203136316
:1004B4007B68032B3BD801A252F823F0D104000837
:1004C400EB040008030500081B0500082C4B1B68FF
:1004D400BA685200032101FA02F2D2431146284AB3
:1004E4000B40136023E0264B1B68BA6852000121BD
:1004F40001FA02F21146224A0B43136017E0204B23
:100504001B68BA685200022101FA02F211461C4A21
:100514000B4313600BE01A4B1B68BA6852000321AB
:1005240001FA02F21146164A0B43136000BF3B68FE
:10053400002B03D03B68012B0CD016E0104B5B68FA
:100544000121BA6801FA02F2D24311460C4A0B4067
:1005540053600AE00A4B5B680121BA6801FA02F2AF
:100564001146074A0B43536000BF00BF00BF143756
:10057400BD465DF8047B704700380240000002402D
:100584000004024080B487B000AF0346B9607A60CB
:10059400FB73FB7B412B02D0422B2DD059E0304B17
:1005A4001B68BA685200032101FA02F21A40BB68C0
:1005B4005B0022FA03F3012B1BD17B68002B0AD0CA
:1005C400274B5B690121BA6801FA02F21146244AF9
:1005D4000B4353610AE0224B5B690121BA6801FABB
:1005E40002F2D24311461E4A0B4053610023FB75AD
:1005F4002FE00123FB752CE01A4B1B68BA685200EC
:10060400012101FA02F21A40BB685B0022FA03F3EB
:10061400002B1BD07B68002B0AD0124B5B69012195
:10062400BA6801FA02F211460E4A0B4353610AE01A
:100634000C4B5B690121BA6801FA02F2D2431146FC
:10064400084A0B4053610023FB7501E00123FB754D
:1006540000BFFB7D18461C37BD465DF8047B704720
:10066400000002400004024070B50D4D0D4C641BA7
:10067400A4100026A64209D10B4D0C4C00F018F82A
:10068400641BA4100026A64205D170BD55F8043B96
:1006940098470136EEE755F8043B98470136F2E7F0
:1006A400D8060008D8060008D8060008DC060008AA
:1006B400F8B500BFF8BC08BC9E467047F8B500BF4B
:0806C400F8BC08BC9E4670471B
:0C06CC003F065B4F666D7D077F6F0000EE
:0406D800B90100085C
:0406DC00950100087C
:0406E0000100000015
:0400000508000349A3
:00000001FF
