:020000040800F2
:100000000000012021050008A9040008AF04000831
:10001000B5040008BB040008C1040008000000008B
:10002000000000000000000000000000C7040008FD
:10003000D504000800000000E3040008F1040008F3
:1000400071050008710500087105000871050008B8
:1000500071050008710500086104000871050008B9
:100060007105000871050008710500087105000898
:100070007105000871050008710500087105000888
:1000800071050008710500087105000800000000F6
:1000900000000000000000000000000071050008E2
:1000A0007105000871050008710500087105000858
:1000B0007105000871050008710500087105000848
:1000C0007105000871050008710500087105000838
:1000D00071050008710500087105000800000000A6
:1000E0007105000871050008710500080000000096
:1000F0000000000000000000000000007105000882
:100100000000000071050008710500087105000875
:1001100000000000000000000000000000000000DF
:1001200071050008710500087105000871050008D7
:100130007105000800000000000000000000000041
:100140000000000000000000000000007105000831
:1001500071050008710500087105000871050008A7
:100160007105000871050008000000000000000093
:10017000000000000000000000000000000000007F
:1001800000000000710500080000000000000000F1
:0401900071050008ED
:1001940010B5054C237833B9044B13B10448AFF3BD
:1001A40000800123237010BD5C00002000000000CB
:1001B400E405000808B5034B1BB103490348AFF33A
:1001C400008008BD0000000060000020E405000875
:1001D40090B482B000AF7860084611461A460346D0
:1001E400FB700B46BB7013467B707B68413B7B60A6
:1001F4005B4A7B682C2101FB03F313441B681A68D8
:1002040001217B6801FA03F31C4655497B682C20C5
:1002140000FB03F30B441B6822431A60504A7B68BB
:100224002C2101FB03F3134404331B681A68FB7885
:100234005B00032101FA03F3DB431C4648497B6856
:100244002C2000FB03F30B4404331B6822401A6088
:10025400434A7B682C2101FB03F3134404331B68DA
:100264001A68B978FB785B0001FA03F31C463C4931
:100274007B682C2000FB03F30B4404331B682243EC
:100284001A60374A7B682C2101FB03F313441033B3
:100294001B681A68FB785B00032101FA03F3DB4354
:1002A4001C462F497B682C2000FB03F30B441033BE
:1002B4001B6822401A602A4A7B682C2101FB03F345
:1002C400134410331B681A687B785B08DBB203F0B5
:1002D4000301FB785B0001FA03F31C4620497B68A9
:1002E4002C2000FB03F30B4410331B6822431A60D9
:1002F4001B4A7B682C2101FB03F3134408331B685E
:100304001A68FB78012101FA03F3DB431C46144904
:100314007B682C2000FB03F30B4408331B6822404A
:100324001A600F4A7B682C2101FB03F31344083342
:100334001B681A687B7803F00101FB7801FA03F368
:100344001C4607497B682C2000FB03F30B4408334D
:100354001B6822431A6000BF0837BD4690BC704733
:100364000000002090B482B000AF78600B46FB70B0
:100374001346BB707B68413B7B60BB78002B18D075
:100384001B4A7B682C2101FB03F3134418331B68BD
:100394001A68FB78012101FA03F31C4614497B68AF
:1003A4002C2000FB03F30B4418331B6822431A6010
:1003B40018E00F4A7B682C2101FB03F31344183324
:1003C4001B681A68FB78012101FA03F3DB431C461E
:1003D40007497B682C2000FB03F30B4418331B688C
:1003E40022401A6000BF0837BD4690BC704700BF6A
:1003F4000000002080B500AF00230122002141202D
:10040400FFF7E6FE0223002200214220FFF7E0FE70
:100414000D4B1B680C4A43F4804313600B4B1B6861
:100424000A4A43F001031360094B1B68084A43F06E
:1004340001031360074B1B68064A43F00103136072
:10044400054B40221A60FEE7443802400838014058
:10045400003C01400C3C014000E100E080B500AFED
:100464000E4B1B78002B08D1012200214120FFF7FD
:1004740079FF0A4B01221A7007E000220021412073
:10048400FFF770FF054B00221A70054B1B68044AE6
:1004940043F00103136000BF80BD00BF780000205B
:1004A400143C014080B400AFFEE780B400AFFEE727
:1004B40080B400AFFEE780B400AFFEE780B400AFC5
:1004C400FEE780B400AF00BFBD465DF8047B704713
:1004D40080B400AF00BFBD465DF8047B704780B4B4
:1004E40000AF00BFBD465DF8047B704780B500AF28
:1004F40000F03EF800BF80BD80B400AF064BD3F8D7
:100504008830054A43F47003C2F8883000BFBD4602
:100514005DF8047B704700BF00ED00E0DFF834D0E5
:100524000D480E490E4A002302E0D458C450043347
:10053400C4188C42F9D30B4A0B4C002301E013601E
:100544000432A242FBD3FFF7D7FF00F025F8FFF7F0
:1005540051FF704700000120000000205C000020D3
:10056400040600085C00002080000020FEE7000074
:1005740080B400AF064B1B781A46064B1B68134425
:10058400044A136000BFBD465DF8047B704700BF9A
:10059400580000207C00002070B50D4D0D4C641BEC
:1005A400A4100026A64209D10B4D0C4C00F018F8FB
:1005B400641BA4100026A64205D170BD55F8043B67
:1005C40098470136EEE755F8043B98470136F2E7C1
:1005D400FC050008FC050008FC05000800060008EE
:1005E400F8B500BFF8BC08BC9E467047F8B500BF1C
:0805F400F8BC08BC9E467047EC
:0405FC00B901000839
:040600009501000858
:10060400303802400000024004000240080002406A
:100614000C00024010000240140002401800024086
:100624001C000240200002402400024030380240F6
:100634000004024004040240080402400C04024086
:100644001004024014040240180402401C04024036
:0C065400200402402404024001000000C9
:0400000508000521C9
:00000001FF
