:020000040800F2
:10000000000001202D0B0008790B0008790B000877
:10001000790B0008790B0008790B0008000000003C
:10002000000000000000000000000000790B000844
:10003000790B000800000000790B0008790B00081C
:10004000790B0008790B0008790B0008790B000880
:10005000790B0008790B0008790B0008790B000870
:10006000790B0008790B0008790B0008790B000860
:10007000790B0008790B0008790B0008790B000850
:10008000790B0008790B0008790B000800000000CC
:10009000000000000000000000000000790B0008D4
:1000A000790B0008790B0008790B0008790B000820
:1000B000790B0008790B0008790B0008790B000810
:1000C000790B0008790B0008790B0008790B000800
:1000D000790B0008790B0008790B0008000000007C
:1000E000790B0008790B0008790B0008000000006C
:1000F000000000000000000000000000790B000874
:1001000000000000790B0008790B0008790B00084B
:1001100000000000000000000000000000000000DF
:100120008D090008790B0008790B0008790B00088D
:10013000790B000800000000000000000000000033
:10014000000000000000000000000000790B000823
:10015000790B0008790B0008790B0008790B00086F
:10016000790B0008790B0008000000000000000077
:10017000000000000000000000000000000000007F
:1001800000000000790B00080000000000000000E3
:04019000790B0008DF
:1001940010B5054C237833B9044B13B10448AFF3BD
:1001A40000800123237010BDA8010020000000007E
:1001B400C40B000808B5034B1BB103490348AFF354
:1001C400008008BD00000000AC010020C40B000842
:1001D40080B483B000AF7860084B1B68074A43F4CF
:1001E40000131360054B1B68044A43F48003136037
:1001F40000BF0C37BD465DF8047B704730380240C1
:1002040080B487B000AFF8600B467A60FB727B68FD
:100214009B7A022B05D1FB68384A934201D1012312
:100224007AE27B68DB7B012B0CD17B681B7C002B87
:1002340008D17B681B8903F001039BB2002B23D0F8
:10024400012369E27B68DB7B022B0CD17B681B7C7E
:10025400002B08D17B681B8903F003039BB2002B9E
:1002640012D0012358E27B68DB7B022B0CD17B6824
:100274001B7C012B08D17B681B8903F001039BB213
:10028400002B01D0012347E27B685B7B002B7B685A
:100294005B7B002B03D17B689B7B002B18D07B6896
:1002A4005B7C012B14D17B685B7B9AB27B68D97B26
:1002B4007B681B7CB1FBF3F3DBB29BB212FB03F351
:1002C400FB827B681B89FA8A9A4201D0012323E2CC
:1002D4007B685B7C012B05D17B689B7E012B01D164
:1002E400012319E27B681A7C7B68DB7B9A4207D086
:1002F4007B68DB7E002B03D101230DE2006002400A
:10030400FA7AF96813465B001344DB000B4410339C
:1003140000221A6000BFFA7AF96813465B0013449E
:10032400DB000B4410331B6803F00103002BF2D1F4
:100334007B681B89FA7A1846F96813465B001344F4
:10034400DB000B4414331860FA7AF96813465B0037
:100354001344DB000B4410331B687A68D27C5102CF
:100364007A68927C92020A431146FA7A1943F86831
:1003740013465B001344DB00034410331960FA7A1C
:10038400F96813465B001344DB000B4410331B680D
:100394007A68D27B51037A68127CD2020A431146EE
:1003A400FA7A1943F86813465B001344DB000344EC
:1003B40010331960FA7AF96813465B001344DB00C2
:1003C4000B4424331B68FA7A23F08001F86813463F
:1003D4005B001344DB00034424331960FA7AF968A0
:1003E40013465B001344DB000B4424331B687A6818
:1003F400127ED2011146FA7A1943F86813465B005B
:100404001344DB00034424331960FA7AF968134671
:100414005B001344DB000B4410331B687A68D27D05
:1004240051007A68527DD20011437A68927D92001D
:1004340011437A68127D12010A431146FA7A19436C
:10044400F86813465B001344DB000344103319605F
:10045400FA7AF96813465B001344DB000B4410334B
:100464001B687A68D27A52061146FA7A1943F868F8
:1004740013465B001344DB00034410331960FA7A1B
:10048400F96813465B001344DB000B4410331B680C
:100494007A68127B12041146FA7A1943F8681346F3
:1004A4005B001344DB00034410331960FA7AF968E3
:1004B40013465B001344DB000B4410331B687A685B
:1004C400527BD1057A68927B52050A431146FA7A27
:1004D4001943F86813465B001344DB0003441033EC
:1004E4001960FA7AF96813465B001344DB000B4485
:1004F40024331B687A68527E1146FA7A1943F868E5
:1005040013465B001344DB00034424331960FA7A76
:10051400F96813465B001344DB000B4410331B687B
:100524007A68927A92011146FA7A1943F868134666
:100534005B001344DB000344103319607B689B7A2F
:10054400002B04D07B689B7A012B40F08D80FA7AD3
:10055400F96813465B001344DB000B4410331B683B
:100564007A68927E52011146FA7A1943F868134662
:100574005B001344DB00034410331960FA7AF96812
:1005840013465B001344DB000B4424331B68FA7AE4
:1005940023F00C01F86813465B001344DB000344AA
:1005A40024331960FA7AF96813465B001344DB00BC
:1005B4000B4424331B687A68D27E92001146FA7A7F
:1005C4001943F86813465B001344DB0003442433E7
:1005D4001960FA7AF96813465B001344DB000B4494
:1005E40010331B687A68527C12021146FA7A194356
:1005F400F86813465B001344DB00034410331960AE
:100604007B689B7A002B17D1FB7A7A681168F868AB
:100614005A1C13465B001344DB0003441960FB7A45
:100624007A685168F8685A1C13465B001344DB006F
:100634000344043319606EE0FB7A7A681168F86841
:100644005A1C13465B001344DB0003440433196053
:10065400FB7A7A685168F8685A1C13465B001344A5
:10066400DB000344196056E07B689B7A022B52D16D
:10067400FA7AF96813465B001344DB000B44103329
:100684001B68FA7A23F02001F86813465B001344D0
:10069400DB00034410331960FA7AF96813465B00EF
:1006A4001344DB000B4424331B68FA7A43F004013F
:1006B400F86813465B001344DB00034424331960D9
:1006C400FA7AF96813465B001344DB000B441033D9
:1006D4001B68FA7A23F48071F86813465B001344AC
:1006E400DB00034410331960FB7A7A681168F868F8
:1006F4005A1C13465B001344DB0003441960FB7A65
:100704007A685168F8685A1C13465B001344DB008E
:10071400034404331960002318461C37BD465DF8B2
:10072400047B704780B483B000AF78600B46FB70E5
:10073400FA78796813465B001344DB000B441033EA
:100744001B68FA7843F00101786813465B00134490
:10075400DB0003441033196000BF0C37BD465DF85D
:10076400047B704780B485B000AFB9607A603B60A9
:100774000346FB73FB7B413BFB73584B1B68FA7BC3
:10078400012101FA02F21146544A0B4313607B68BB
:10079400032B54D801A252F823F000BFB10700087C
:1007A400D7070008FB0700081F080008FB7B4C4A1A
:1007B40052F823301B68BA685200032101FA02F28E
:1007C400D2431046FA7B464951F822200340136075
:1007D40035E0FB7B424A52F823301B68BA6852006A
:1007E400012101FA02F21046FA7B3D4951F8222018
:1007F4000343136023E0FB7B394A52F823301B6820
:10080400BA685200022101FA02F21046FA7B344916
:1008140051F822200343136011E0FB7B304A52F865
:1008240023301B68BA685200032101FA02F2104611
:10083400FA7B2B4951F822200343136000BF3B6825
:10084400002B03D03B68012B14D026E0FB7B244A09
:1008540052F8233004331B680121BA6801FA02F20A
:10086400D2431046FA7B1E4951F822200432034039
:10087400136012E0FB7B1A4A52F8233004331B68DE
:100884000121BA6801FA02F21046FA7B144951F8C0
:10089400222004320343136000BFFB7B104A52F84A
:1008A40023300C331B68BA685200032101FA02F2A8
:1008B400D2431340397EBA68520001FA02F210465C
:1008C400FA7B074951F822200C320343136000BF1E
:1008D4001437BD465DF8047B704700BF30380240D2
:1008E4000000002080B487B000AF0346B9607A608E
:1008F400FB73FB7B413BFB73FB7B224A52F82330A7
:100904001B68BA685200032101FA02F21A40BB685C
:100914005B0022FA03F3012B2BD17B68002B12D04E
:10092400FB7B184A52F8233014331B680121BA6840
:1009340001FA02F21046FA7B124951F822201432CD
:100944000343136012E0FB7B0E4A52F82330143346
:100954001B680121BA6801FA02F2D2431046FA7BFD
:10096400084951F822201432034013600023FB7518
:1009740001E00123FB75FB7D18461C37BD465DF87D
:10098400047B70470000002080B582B000AF0023D4
:10099400FB7112E0FB790D4A52F82320FB790C49D4
:1009A40051F823309A4205D1FB790122194641209E
:1009B400FFF798FFFB790133FB71FB79072BE9D92A
:1009C40000BF00BF0837BD4680BD00BF180000202F
:1009D400C401002080B588B000AF204BBB60204B21
:1009E4007B6000237B750023FB7300237B7400234F
:1009F400BB740123FB7703237B770023BB7701239D
:100A0400BB750123FB750223FB7402233B7564232E
:100A1400BB8103233B740223BB730023BB760023F7
:100A2400FB7600233B7700237B760023BB760123F0
:100A34003B760C48FFF7CCFB3B1D1A4600210948C6
:100A4400FFF7DEFB382000F055F800210548FFF7DA
:100A540069FE00BF2037BD4680BD00BFC401002031
:100A6400180000200064024080B582B002AF002369
:100A740000930023012200214120FFF773FE00238D
:100A840000930023012201214120FFF76BFE002384
:100A940000930023012202214120FFF763FE00237B
:100AA40000930023012203214120FFF75BFE002372
:100AB40000930023012204214120FFF753FE002369
:100AC40000930023012205214120FFF74BFE002360
:100AD40000930023012206214120FFF743FE002357
:100AE40000930023012207214120FFF73BFEFFF77B
:100AF40071FFFEE780B483B000AF0346FB71FB795E
:100B040003F01F03012202FA03F1064AFB795B0991
:100B1400DBB242F8231000BF0C37BD465DF8047BFE
:100B2400704700BF00E100E0DFF830D00C480D4909
:100B34000D4A002302E0D458C4500433C4188C4234
:100B4400F9D30A4A0A4C002301E013600432A2429A
:100B5400FBD300F011F8FFF787FF70470000012076
:100B640000000020A8010020E40B0008A8010020D8
:100B740054030020FEE7000070B50D4D0D4C641BBE
:100B8400A4100026A64209D10B4D0C4C00F018F815
:100B9400641BA4100026A64205D170BD55F8043B81
:100BA40098470136EEE755F8043B98470136F2E7DB
:100BB400DC0B0008DC0B0008DC0B0008E00B000871
:100BC400F8B500BFF8BC08BC9E467047F8B500BF36
:080BD400F8BC08BC9E46704706
:040BDC00B901000853
:040BE0009501000873
:100BE400000002400004024000080240000C0240E1
:100BF40000100240001C0240040000000500000038
:100C040005000000080000000700000009000000C3
:100C140009000000060000000000000000000000C1
:100C240000000000000000000000000000000000C0
:100C340000000000000000000000000000000000B0
:100C440000000000000000000000000000000000A0
:100C54000000000000000000000000000000000090
:100C64000000000000000000000000000000000080
:100C74000000000000000000000000000000000070
:100C84000000000000000000000000000000000060
:100C94000000000000000000000000000000000050
:100CA4000000000000000000000000000000000040
:100CB4000000000000000000000000000000000030
:100CC4000000000000000000000000000000000020
:100CD4000000000000000000000000000000000010
:100CE4000000000000000000000000000000000000
:100CF40000000000000000000000000000000000F0
:100D040000000000000000000000000000000000DF
:100D140000000000000000000000000000000000CF
:100D240000000000000000000000000000000000BF
:100D340000000000000000000000000000000000AF
:100D4400000000000000000000000000000000009F
:100D5400000000000000000000000000000000008F
:100D6400000000000000000000000000000000007F
:100D7400000000000000000000000000000000006F
:080D8400000000000000000067
:0400000508000B2DB7
:00000001FF
