:020000040800F2
:1000000000000120B90300080904000809040008E1
:1000100009040008090400080904000800000000A1
:1000200000000000000000000000000009040008BB
:100030000904000800000000090400080904000881
:10004000090400080904000809040008090400085C
:10005000090400080904000809040008090400084C
:10006000090400080904000809040008090400083C
:10007000090400080904000809040008090400082C
:100080000904000809040008090400080000000031
:10009000000000000000000000000000090400084B
:1000A00009040008090400080904000809040008FC
:1000B00009040008090400080904000809040008EC
:1000C00009040008090400080904000809040008DC
:1000D00009040008090400080904000800000000E1
:1000E00009040008090400080904000800000000D1
:1000F00000000000000000000000000009040008EB
:1001000000000000090400080904000809040008B0
:1001100000000000000000000000000000000000DF
:10012000090400080904000809040008090400087B
:1001300009040008000000000000000000000000AA
:10014000000000000000000000000000090400089A
:10015000090400080904000809040008090400084B
:100160000904000809040008000000000000000065
:10017000000000000000000000000000000000007F
:10018000000000000904000800000000000000005A
:040190000904000856
:1001940010B5054C237833B9044B13B10448AFF3BD
:1001A40000800123237010BD000000200000000027
:1001B4009808000808B5034B1BB103490348AFF383
:1001C400008008BD0000000004000020980800081A
:1001D40080B582B000AF0123BB710223002203214A
:1001E400422000F011F90523FB7108E0F97900239E
:1001F4000122422000F008F9FB790133FB71FB79FD
:10020400072BF3D900BF0321422000F0C7FA0346AD
:10021400012BF8D0BB79184600F00EF80346BB71E9
:1002240000BF0321422000F0B9FA0346002BF8D0A6
:1002340000F09AF8E6E7000080B582B000AF03460C
:10024400FB71FB79013B062B00F2898001A252F875
:1002540023F000BF7502000897020008DB020008C3
:10026400B90200081F030008FD020008410300084A
:1002740001220521422000F01FFA0022062142201B
:1002840000F01AFA00220721422000F015FA022396
:1002940065E000220521422000F00EFA0122062129
:1002A400422000F009FA00220721422000F004FA5B
:1002B400042354E000220521422000F0FDF900222D
:1002C4000621422000F0F8F901220721422000F023
:1002D400F3F9032343E001220521422000F0ECF965
:1002E40001220621422000F0E7F9002207214220E2
:1002F40000F0E2F9062332E000220521422000F05A
:10030400DBF901220621422000F0D6F9012207215F
:10031400422000F0D1F9052321E0012205214220E9
:1003240000F0CAF900220621422000F0C5F901229A
:100334000721422000F0C0F9072310E00122052123
:10034400422000F0B9F901220621422000F0B4F95C
:1003540001220721422000F0AFF90123FFE71846EC
:100364000837BD4680BD00BF80B500AF002205211F
:10037400422000F0A1F900220621422000F09CF95D
:1003840000220721422000F097F900BF80BD000041
:1003940080B400AF064BD3F88830054A43F47003A9
:1003A400C2F8883000BFBD465DF8047B704700BFCB
:1003B40000ED00E0DFF834D00D480E490E4A00236A
:1003C40002E0D458C4500433C4188C42F9D30B4A05
:1003D4000B4C002301E013600432A242FBD3FFF76D
:1003E400D7FF00F033FAFFF7F3FE70470000012057
:1003F4000000002000000020B808000800000020D1
:100404001C000020FEE7000080B485B000AFB96096
:100414007A603B600346FB73FB7B412B03D0422B8A
:1004240000F09F803BE1A14B1B6BA04A43F001030A
:1004340013637B68032B3CD801A252F823F000BF5E
:10044400550400086F040008870400089F0400088E
:10045400974B1B68BA685200032101FA02F2D24397
:100464001146934A0B40136023E0914B1B68BA6812
:100474005200012101FA02F211468D4A0B43136026
:1004840017E08B4B1B68BA685200022101FA02F292
:100494001146874A0B4313600BE0854B1B68BA680F
:1004A4005200032101FA02F21146814A0B43136000
:1004B40000BF3B68032B00F2F18001A252F823F045
:1004C400D5040008ED0400080305000833050008FE
:1004D400774B5B680121BA6801FA02F2D2431146F4
:1004E400734A0B4053603BE0714B5B680121BA686F
:1004F40001FA02F211466E4A0B43536030E06C4B32
:10050400DB68BA685200032101FA02F2D2431146B1
:10051400674A0B40D360664BDB68BA68520001211E
:1005240001FA02F21146624A0B43D36018E0604BB1
:10053400DB68BA685200032101FA02F2D243114681
:100544005B4A0B40D3605A4BDB68BA685200022105
:1005540001FA02F2D2431146554A0B40D36000BF60
:100564009CE0524B1B6B514A43F0020313637B68BC
:10057400032B3CD801A252F823F000BF91050008D8
:10058400AB050008C3050008DB050008494B1B68E0
:10059400BA685200032101FA02F2D2431146454AD5
:1005A4000B40136023E0434B1B68BA6852000121DF
:1005B40001FA02F211463F4A0B43136017E03D4B28
:1005C4001B68BA685200022101FA02F21146394A44
:1005D4000B4313600BE0374B1B68BA6852000321CE
:1005E40001FA02F21146334A0B43136000BF3B6821
:1005F400032B54D801A252F823F000BF11060008BF
:10060400290600083F0600086F060008294B5B68AE
:100614000121BA6801FA02F2D2431146254A0B407D
:1006240053603CE0234B5B680121BA6801FA02F293
:100634001146204A0B43536031E01E4BDB68BA6815
:100644005200032101FA02F2D2431146194A0B4027
:10065400D360184BDB68BA685200012101FA02F238
:100664001146144A0B43D36019E0124BDB68BA6895
:100674005200032101FA02F2D24311460D4A0B4003
:10068400D3600C4BDB68BA685200022101FA02F213
:10069400D2431146074A0B40D36000E000BF00BFBD
:1006A4001437BD465DF8047B704700BF0038024034
:1006B400000002400004024080B487B000AF03464B
:1006C400B9607A60FB73FB7B412B02D0422B2DD0A7
:1006D40059E0304B1B68BA685200032101FA02F258
:1006E4001A40BB685B0022FA03F3012B1BD17B6821
:1006F400002B0AD0274B5B690121BA6801FA02F288
:100704001146244A0B4353610AE0224B5B690121E1
:10071400BA6801FA02F2D24311461E4A0B405361F1
:100724000023FB752FE00123FB752CE01A4B1B689B
:10073400BA685200012101FA02F21A40BB685B0058
:1007440022FA03F3002B1BD07B68002B0AD0124B38
:100754005B690121BA6801FA02F211460E4A0B43A1
:1007640053610AE00C4B5B690121BA6801FA02F299
:10077400D2431146084A0B4053610023FB7501E044
:100784000123FB7500BFFB7D18461C37BD465DF891
:10079400047B7047000002400004024080B485B02E
:1007A40000AF03463960FB71FB79412B02D0422B29
:1007B4001FD040E0234B1B683A685200032101FA22
:1007C40002F21A403B685B0022FA03F3002B2FD19C
:1007D4001C4B1B6901213A6801FA02F21146194ABD
:1007E4000B401361FB60FA683B6822FA03F3FB6079
:1007F4001EE0154B1B683A685200032101FA02F20D
:100804001A403B685B0022FA03F3002B12D10E4B13
:100814001B6901213A6801FA02F211460A4A0B40A7
:100824001361FB60FA683B6822FA03F3FB6001E0A2
:1008340000BF00E000BFFB6818461437BD465DF8F2
:10084400047B7047000002400004024070B50D4D67
:100854000D4C641BA4100026A64209D10B4D0C4C70
:1008640000F018F8641BA4100026A64205D170BD40
:1008740055F8043B98470136EEE755F8043B984792
:100884000136F2E7B0080008B0080008B008000814
:10089400B4080008F8B500BFF8BC08BC9E46704711
:0C08A400F8B500BFF8BC08BC9E467047C9
:0408B000B901000882
:0408B40095010008A2
:04000005080003B933
:00000001FF
