:020000040800F2
:100000000000012061040008B1040008B1040008E8
:10001000B1040008B1040008B104000800000000A9
:10002000000000000000000000000000B104000813
:10003000B104000800000000B1040008B104000889
:10004000B1040008B1040008B1040008B1040008BC
:10005000B1040008B1040008B1040008B1040008AC
:10006000B1040008B1040008B1040008B10400089C
:10007000B1040008B1040008B1040008B10400088C
:10008000B1040008B1040008B10400080000000039
:10009000000000000000000000000000B1040008A3
:1000A000B1040008B1040008B1040008B10400085C
:1000B000B1040008B1040008B1040008B10400084C
:1000C000B1040008B1040008B1040008B10400083C
:1000D000B1040008B1040008B104000800000000E9
:1000E000B1040008B1040008B104000800000000D9
:1000F000000000000000000000000000B104000843
:1001000000000000B1040008B1040008B1040008B8
:1001100000000000000000000000000000000000DF
:10012000B1040008B1040008B1040008B1040008DB
:10013000B104000800000000000000000000000002
:10014000000000000000000000000000B1040008F2
:10015000B1040008B1040008B1040008B1040008AB
:10016000B1040008B1040008000000000000000015
:10017000000000000000000000000000000000007F
:1001800000000000B10400080000000000000000B2
:04019000B1040008AE
:1001940010B5054C237833B9044B13B10448AFF3BD
:1001A40000800123237010BD08000020000000001F
:1001B400FC04000808B5034B1BB103490348AFF323
:1001C400008008BD000000000C000020FC040008B2
:1001D40080B483B000AF0346FB71FB79002B06D1DA
:1001E4000A4B1B68094A43F00103136008E0FB79DA
:1001F400012B05D1054B1B68044A43F0020313602D
:1002040000BF0C37BD465DF8047B704730380240B0
:1002140090B482B000AF0446084611461A462346FD
:10022400FB710346BB710B467B7113463B71FB7933
:100234003B4A52F823301B68BA795200032101FA71
:1002440002F2D2431046FA79354951F8222003408C
:100254001360FB79324A52F823301B687979BA79F2
:10026400520001FA02F21046FA792D4951F822207F
:1002740003431360FB792A4A52F8233004331B6882
:10028400BA79012101FA02F2D2431046FA792449DB
:1002940051F82220043203401360FB79204A52F8BB
:1002A400233004331B683A7902F00101BA7901FA68
:1002B40002F21046FA791A4951F822200432034313
:1002C4001360FB79164A52F823300C331B68BA7951
:1002D4005200032101FA02F2D2431046FA7910497E
:1002E40051F822200C3203401360FB790C4A52F877
:1002F40023300C331B683A79521002F00301BA79A7
:10030400520001FA02F21046FA79054951F8222006
:100314000C320343136000BF0837BD4690BC7047DE
:100324000000002080B500AF00F005F800F010F8E0
:1003340000F054F8FEE780B500AF0020FFF748FF57
:100344000023022202210020FFF762FF00BF80BDCC
:1003540080B400AF1C4B1B681B4A43F4E06313607A
:100364001A4B1B68194A43F400331360184B40F2CC
:1003740083621A60174B1B68164A23F40043136008
:10038400144B1B68134A43F400531360114B1B684E
:10039400104A23F4805313600E4B1B680D4A43F03C
:1003A400080313600B4B1B680A4A23F00403136011
:1003B400094B1B68084A23F44053136000BFBD4631
:1003C4005DF8047B704700BF2000024040380240C3
:1003D400084400400C4400401044004080B485B000
:1003E40000AF124A3B4607CA83E807000023FB60BC
:1003F4000FE03A46FB6813441A780D4B1A6000BFAD
:100404000C4B1B6803F04003002BF9D0FB6801334D
:10041400FB603A46FB6813441B78002BE9D100BF0C
:1004240000BF1437BD465DF8047B7047140500080F
:10043400044400400044004080B400AF064BD3F8AD
:100444008830054A43F47003C2F8883000BFBD46C3
:100454005DF8047B704700BF00ED00E0DFF834D0A6
:100464000D480E490E4A002302E0D458C450043308
:10047400C4188C42F9D30B4A0B4C002301E01360DF
:100484000432A242FBD3FFF7D7FF00F011F8FFF7C5
:1004940049FF7047000001200000002008000020F0
:1004A400280500080800002024000020FEE70000C2
:1004B40070B50D4D0D4C641BA4100026A64209D145
:1004C4000B4D0C4C00F018F8641BA4100026A64237
:1004D40005D170BD55F8043B98470136EEE755F851
:1004E400043B98470136F2E7200500082005000880
:1004F4002005000824050008F8B500BFF8BC08BCB6
:100504009E467047F8B500BFF8BC08BC9E467047CD
:0C05140048454C4C4F20574F524C4400BF
:04052000B901000815
:040524009501000835
:08052800000002400004024043
:04000005080004618A
:00000001FF
