:020000040800F2
:1000000000000120210600087106000871060008A2
:100010007106000871060008710600080000000063
:100020000000000000000000000000007106000851
:100030007106000800000000710600087106000843
:1000400071060008710600087106000871060008B4
:1000500071060008710600087106000871060008A4
:100060007106000871060008710600087106000894
:100070007106000871060008710600087106000884
:1000800071060008710600087106000800000000F3
:1000900000000000000000000000000071060008E1
:1000A0007106000871060008710600087106000854
:1000B0007106000871060008710600087106000844
:1000C0007106000871060008710600087106000834
:1000D00071060008710600087106000800000000A3
:1000E0007106000871060008710600080000000093
:1000F0000000000000000000000000007106000881
:100100000000000071060008710600087106000872
:1001100000000000000000000000000000000000DF
:1001200071060008710600087106000871060008D3
:100130007106000800000000000000000000000040
:100140000000000000000000000000007106000830
:1001500071060008710600087106000871060008A3
:100160007106000871060008000000000000000091
:10017000000000000000000000000000000000007F
:1001800000000000710600080000000000000000F0
:0401900071060008EC
:1001940010B5054C237833B9044B13B10448AFF3BD
:1001A40000800123237010BD140000200000000013
:1001B400BC06000808B5034B1BB103490348AFF361
:1001C400008008BD0000000018000020BC060008E4
:1001D40080B483B000AF0346FB71FB79002B06D1DA
:1001E4000A4B1B68094A43F00103136008E0FB79DA
:1001F400012B05D1054B1B68044A43F0020313602D
:1002040000BF0C37BD465DF8047B704730380240B0
:1002140090B482B000AF0446084611461A462346FD
:10022400FB710346BB710B467B7113463B71FB7933
:100234003B4A52F823301B68BA795200032101FA71
:1002440002F2D2431046FA79354951F8222003408C
:100254001360FB79324A52F823301B687979BA79F2
:10026400520001FA02F21046FA792D4951F822207F
:1002740003431360FB792A4A52F8233004331B6882
:10028400BA79012101FA02F2D2431046FA792449DB
:1002940051F82220043203401360FB79204A52F8BB
:1002A400233004331B683A7902F00101BA7901FA68
:1002B40002F21046FA791A4951F822200432034313
:1002C4001360FB79164A52F823300C331B68BA7951
:1002D4005200032101FA02F2D2431046FA7910497E
:1002E40051F822200C3203401360FB790C4A52F877
:1002F40023300C331B683A79521002F00301BA79A7
:10030400520001FA02F21046FA79054951F8222006
:100314000C320343136000BF0837BD4690BC7047DE
:100324000000002080B485B000AF0346FB710B468B
:10033400BB7113467B71FB79224A52F823301B6848
:10034400BA795200032101FA02F21A40BB795B0028
:1003540022FA03F3012B2BD17B79002B12D0FB79EA
:10036400184A52F8233014331B68BA79012101FA70
:1003740002F21046FA79134951F822201432034349
:10038400136012E0FB790F4A52F8233014331B68D0
:10039400BA79012101FA02F2D2431046FA790949E5
:1003A40051F822201432034013600023FB7301E050
:1003B4000123FB73FB7B18461437BD465DF8047BB1
:1003C400704700BF0000002080B485B000AF034632
:1003D4000A46FB711346BB710023FB73FB790A4A7F
:1003E40052F8233010331B68BA79012101FA02F262
:1003F4001A40BB7922FA03F3FB73FB7B18461437CC
:10040400BD465DF8047B70470000002080B582B0D3
:1004140000AF0120FFF7DCFE0823FB7108E0F97947
:10042400002301220120FFF7F3FEFB790133FB7166
:10043400FB790A2BF3D90023BB7108E0B9790223B5
:1004440000220120FFF7E4FEBB790133BB71BB79C5
:10045400032BF3D900BF0837BD4680BD80B400AF7D
:10046400034B1B781846BD465DF8047B704700BFFC
:100474003000002080B582B000AF0823BB7141E09A
:10048400BB79002219460120FFF74CFF0023FB71C2
:100494002CE0FB7919460120FFF796FF0346002B59
:1004A40021D100233B6002E03B6801333B603B68A1
:1004B40047F22F529342F7D9FB7919460120FFF7EF
:1004C40083FF0346002B0ED1FA79BB79A3F108010F
:1004D400104813465B00134403440B441A780E4B34
:1004E4001A7000F055F8FB790133FB71FB79032B8B
:1004F400CFD9BB79012219460120FFF713FFBB793D
:100504000133BB71BB790A2BBAD900BF0837BD468A
:1005140080BD00BFD40600083000002080B582B042
:1005240000AF0020FFF754FE0023FB7108E0F979C7
:10053400002301220020FFF76BFEFB790133FB71DE
:10054400FB79062BF3D900BF0837BD4680BD80B5C3
:1005540082B000AF0023FB7108E0FB79002219464A
:100564000020FFF7DFFEFB790133FB71FB79062BDB
:10057400F3D900BF0837BD4680BD80B500AFFFF793
:10058400CDFFFFF743FFFFF7E2FFFFF773FFFCE741
:1005940080B582B000AFFFF761FF0346BB71BB7942
:1005A400232B01D1FFF7D3FFBB79092B1CD80023E0
:1005B400FB7115E0BB790F4AD35C1946FB79012224
:1005C40002FA03F301EA0302FB7942FA03F3DAB213
:1005D400FB7919460020FFF7A5FEFB790133FB7177
:1005E400FB79062BE6D901E0FFF7B1FF00BF08371E
:1005F400BD4680BD0800002080B400AF064BD3F890
:100604008830054A43F47003C2F8883000BFBD4601
:100614005DF8047B704700BF00ED00E0DFF834D0E4
:100624000D480E490E4A002302E0D458C450043346
:10063400C4188C42F9D30B4A0B4C002301E013601D
:100644000432A242FBD3FFF7D7FF00F011F8FFF703
:1006540094FF7047000001200000002014000020D7
:10066400E80600081400002034000020FEE7000023
:1006740070B50D4E0D4CA41BA4100025A54209D144
:100684000B4E0C4C00F018F8A41BA4100025A54236
:1006940005D170BD56F8253098470135EEE756F878
:1006A400253098470135F2E7E0060008E006000827
:1006B400E0060008E4060008F8B500BFF8BC08BC72
:1006C4009E467047F8B500BFF8BC08BC9E4670470C
:0C06D4000102030405060708092A0023A0
:0406E000B901000854
:0406E4009501000874
:1006E80000000240000402403F065B4F666D7D0734
:0406F8007F6F000010
:0400000508000621C8
:00000001FF
